S0130000546573745F6E6F5F4153462E73726563FC
S21440000098274020A10140009D0140009D014000EE
S2144000109D0140009D0140009D0140000000000001
S2144000200000000000000000000000009D014000AD
S2144000309D014000000000009D0140009D014000E1
S2144000409D0140009D0140009D0140009D014000F3
S2144000509D0140009D0140009D0140009D014000E3
S2144000609D014000000000009D0140009D014000B1
S2144000709D0140009D0140009D0140009D014000C3
S2144000809D0140009D0140009D0140009D014000B3
S2144000909D0140009D0140009D0140009D014000A3
S2144000A09D0140009D0140009D0140009D01400093
S2144000B09D0140009D0140009D0140009D01400083
S2144000C09D0140009D0140009D0140009D01400073
S2144000D0000000009D014000000000009D0140001F
S2144000E09D0140009D0140009D0140009D01400053
S2144000F09D0140009D0140009D0140009D01400043
S2144001009D0140009D0140009D0140009D01400032
S2144001109D014000000000000000000000000000BC
S2144001209D0140009D0140009D0140009D01400012
S2144001309D014000000000009D0140009D014000E0
S21440014010B5054C237833B9044B13B10448AFF3CC
S21440015000800123237010BD3004402000000000C2
S21440016028054000084B10B51BB108480849AFF3B6
S21440017000800848036803B910BD074B002BFBD02E
S214400180BDE81040184700BF0000000028054000AA
S214400190340440202805400000000000FEE700BF71
S2144001A008B5194B194A9A4203D0194B164A9A4237
S2144001B004D3184B184A9A4210D31BE012490A1D22
S2144001C0164B9B1A23F003030433104A134452F889
S2144001D0040B41F8040B9A42F9D1EAE7104B114A56
S2144001E0D21A22F003021A44043B002143F8041BAF
S2144001F09342FBD10C4A0D4B23F07F0393600C4B8C
S21440020098470C4B9847FEE70000402028054000E2
S21440021030044020982340203004402033044020BF
S214400220340440209B23402000ED00E000004000C6
S214400230B9034000810340004FF4A062204B1A608F
S214400240A3F5C0631B6A13F0807F07D11D4A1E4B7F
S2144002501A621A46936E13F0010FFBD01B4A1A4BD4
S2144002601A621A46936E13F4803FFBD0164A136BFD
S21440027023F0030343F001031363936E13F0080F58
S214400280FBD0134A104B9A621A46936E13F0020F35
S214400290FBD040F211120C4B1A631A46936E13F0C1
S2144002A0080FFBD04FF48972074B1A631A46936EB9
S2144002B013F0080FFBD0074A074B1A60704700BF81
S2144002C0000C0E400908370000060E4009083701AA
S2144002D0013F3120000E2707000040202DE9F04F57
S2144002E085B00E9DDDF83CE0002A45D09246109A37
S2144002F0814600EB8A0A02EB850C4FF00008CDF8E9
S2144003000C800192C3F1200202924746CB465BF82E
S214400310042B4EF827205DB3019E3C464FF0000864
S214400320C14656F8040BB4FBF5F205FB12425EF8E4
S214400330222002FB00F218EB020849EBE279013C6E
S2144003406645EED1B3F1200028FA03F2029C09FA82
S21440035004F442EA040202D449FA00F002430A6076
S2144003600137BD4298BF00270431D345CFD103E0C3
S21440037000220A60039FF7E705B0BDE8F08F00BF94
S21440038080B584B0084B9847084E06F57A67084C07
S21440039094E807008DE80700304639464FF47A72F5
S2144003A01F23044DA847F3E7390240004C04402081
S2144003B08C234020DD02400070B50F4E0F4D761B5B
S2144003C0B61018BF002405D0013455F8043B9847B2
S2144003D0A642F9D10A4E00F095F80A4D761BB610A3
S2144003E018BF002406D0013455F8043B9847A6426F
S2144003F0F9D170BD70BD00BF10054000100540002B
S2144004001805400010054000024B13B1024800F0AA
S21440041005B870470000000029044000014600204F
S2144004200246034600F016B838B5084B084DED1A9C
S214400430AC1018BFED1805D0013C55F8043D984760
S214400440002CF9D1BDE8384000F066B824054000DD
S214400450280540002DE9F047264C0646884691463A
S21440046025689A46D5F84841002C3AD060681F283F
S21440047019DC411C86B104EB80050122022EC5F82A
S214400480889002FA00F2D4F8883143EA0203C4F8AE
S2144004908831C5F808A11ED0831C6160002044F84E
S2144004A02380BDE8F087144B03B34FF4C870AFF316
S2144004B000800446D0B1D5F84831002701210360BA
S2144004C038466760C5F84841C4F88871C4F88C71EE
S2144004D0002EE1D0CFE7D4F88C311A43C4F88C21F3
S2144004E0DAE705F5A674C5F84841BFE74FF0FF3098
S2144004F0BDE8F08700054000000000004300000013
S21440050008004020F8B500BFF8BC08BC9E467047BF
S2144005100904400065014000F8B500BFF8BC08BCBF
S20C4005209E4670474101400071
S21440052800093D000000000000000000F4024020E2
S2144005385C034020C4034020000000000000000088
S214400548000000000000000000000000000000005E
S214400558000000000000000000000000FC0440000E
S214400568000000000000000000000000000000003E
S214400578000000000000000000000000000000002E
S214400588000000000000000000000000000000001E
S214400598000000000000000000000000000000000E
S2144005A800000000000000000000000000000000FE
S2144005B800000000000000000000000000000000EE
S2144005C800000000000000000000000000000000DE
S2144005D801000000000000000E33CDAB34126DE67B
S2144005E8ECDE05000B0000000000000000000000E4
S2144005F800000000000000000000000000000000AE
S214400608000000000000000000000000000000009D
S214400618000000000000000000000000000000008D
S214400628000000000000000000000000000000007D
S804400000BB
