:020000040040BA
:1000000038284020A10140009D0140009D01400092
:100010009D0140009D0140009D0140000000000046
:100020000000000000000000000000009D014000F2
:100030009D014000000000009D0140009D01400026
:100040009D0140009D0140009D0140009D01400038
:100050009D0140009D0140009D0140009D01400028
:100060009D014000000000009D0140009D014000F6
:100070009D0140009D0140009D0140009D01400008
:100080009D0140009D0140009D0140009D014000F8
:100090009D0140009D0140009D0140009D014000E8
:1000A0009D0140009D0140009D0140009D014000D8
:1000B0009D0140009D0140009D0140009D014000C8
:1000C0009D0140009D0140009D0140009D014000B8
:1000D000000000009D014000000000009D01400064
:1000E0009D0140009D0140009D0140009D01400098
:1000F0009D0140009D0140009D0140009D01400088
:100100009D0140009D0140009D0140009D01400077
:100110009D01400000000000000000000000000001
:100120009D0140009D0140009D0140009D01400057
:100130009D014000000000009D0140009D01400025
:1001400010B5054C237833B9044B13B10448AFF311
:1001500000800123237010BD8004402000000000B7
:1001600038054000084B10B51BB108480849AFF3EB
:1001700000800848036803B910BD074B002BFBD073
:10018000BDE81040184700BF0000000038054000DF
:10019000840440203805400000000000FEE700BF56
:1001A00008B5194B194A9A4203D0194B164A9A427C
:1001B00004D3184B184A9A4210D31BE012490A1D67
:1001C000164B9B1A23F003030433104A134452F8CE
:1001D000040B41F8040B9A42F9D1EAE7104B114A9B
:1001E000D21A22F003021A44043B002143F8041BF4
:1001F0009342FBD10C4A0D4B23F07F0393600C4BD1
:1002000098470C4B9847FEE7000040203805400017
:100210008004402034244020800440208304402077
:10022000840440203724402000ED00E0000040001E
:10023000C90340008D0340004FF4A062204B1A60B8
:10024000A3F5C0631B6A13F0807F07D11D4A1E4BC4
:100250001A621A46936E13F0010FFBD01B4A1A4B19
:100260001A621A46936E13F4803FFBD0164A136B42
:1002700023F0030343F001031363936E13F0080F9D
:10028000FBD0134A104B9A621A46936E13F0020F7A
:10029000FBD040F211120C4B1A631A46936E13F006
:1002A000080FFBD04FF48972074B1A631A46936EFE
:1002B00013F0080FFBD0074A074B1A60704700BFC6
:1002C000000C0E400908370000060E4009083701EF
:1002D000013F3120000E2707000040202DE9F04F9C
:1002E00083B00C9DDDF834A0002A4AD09346264AFC
:1002F000D2F800C08146884600EB8B0B03EB850EDD
:1003000011460093CAF12003019359F8042B01EB25
:100310008C035A608DB3009C60460026374654F823
:10032000042BB0FBF5F305FB130301EB83035B68C0
:1003300003FB02F2B61847EBE27701387445EED1C1
:10034000BAF1200226FA0AF3019807FA00F043EA0C
:10035000000302D447FA02F21343C8F800300CF14C
:10036000010C654501D84FF0000C08F10408D9458F
:10037000CBD1054BC3F800C003E00023C8F8003020
:10038000F1E703B0BDE8F08F9C04402080B582B057
:10039000094B9847094D05F15807094E152300935D
:1003A0001F230193384605F6F8714FF47A723346ED
:1003B000044CA047F2E700BF390240009C044020F3
:1003C00004004020DD02400070B50F4E0F4D761B3B
:1003D000B61018BF002405D0013455F8043B9847E7
:1003E000A642F9D10A4E00F095F80A4D761BB610D8
:1003F00018BF002406D0013455F8043B9847A642A4
:10040000F9D170BD70BD00BF20054000200540003F
:100410002805400020054000024B13B1024800F0BF
:1004200005B8704700000000390440000146002074
:100430000246034600F016B838B5084B084DED1AD1
:10044000AC1018BFED1805D0013C55F8043D984795
:10045000002CF9D1BDE8384000F066B83405400002
:10046000380540002DE9F047264C0646884691465F
:1004700025689A46D5F84841002C3AD060681F2874
:1004800019DC411C86B104EB80050122022EC5F85F
:10049000889002FA00F2D4F8883143EA0203C4F8E3
:1004A0008831C5F808A11ED0831C6160002044F883
:1004B0002380BDE8F087144B03B34FF4C870AFF34B
:1004C00000800446D0B1D5F84831002701210360EF
:1004D00038466760C5F84841C4F88871C4F88C7123
:1004E000002EE1D0CFE7D4F88C311A43C4F88C2128
:1004F000DAE705F5A674C5F84841BFE74FF0FF30CD
:10050000BDE8F08710054000000000004300000037
:1005100058004020F8B500BFF8BC08BC9E467047A4
:100520001904400065014000F8B500BFF8BC08BCE4
:080530009E46704741014000A6
:1005380000093D00DAFAFFFF0BF1FFFF57F0FFFF5C
:1005480033FDFFFF1F0D00008108000086F1FFFF4B
:1005580013EAFFFF3A100000944F0000376F0000C5
:10056800944F00003A10000013EAFFFF86F1FFFFE6
:10057800810800001F0D000033FDFFFFA90F0000D8
:100588000BF1FFFFDAFAFFFF0000000044034020F0
:10059800AC034020140440200000000000000000CC
:1005A8000000000000000000000000000000000043
:1005B8000000000000000000000000000C054000E2
:1005C8000000000000000000000000000000000023
:1005D8000000000000000000000000000000000013
:1005E8000000000000000000000000000000000003
:1005F80000000000000000000000000000000000F3
:1006080000000000000000000000000000000000E2
:1006180000000000000000000000000000000000D2
:1006280000000000000000000000000000000000C2
:1006380001000000000000000E33CDAB34126DE65F
:10064800ECDE05000B0000000000000000000000C8
:100658000000000000000000000000000000000092
:100668000000000000000000000000000000000082
:100678000000000000000000000000000000000072
:100688000000000000000000000000000000000062
:0400000500400000B7
:00000001FF
